{
  "_format": "hh-sol-artifact-1",
  "contractName": "CoffeePortal",
  "sourceName": "contracts/CoffeePortal.sol",
  "abi": [
    {
      "inputs": [],
      "stateMutability": "payable",
      "type": "constructor"
    },
    {
      "anonymous": false,
      "inputs": [
        {
          "indexed": true,
          "internalType": "address",
          "name": "from",
          "type": "address"
        },
        {
          "indexed": false,
          "internalType": "uint256",
          "name": "timestamp",
          "type": "uint256"
        },
        {
          "indexed": false,
          "internalType": "string",
          "name": "message",
          "type": "string"
        },
        {
          "indexed": false,
          "internalType": "string",
          "name": "name",
          "type": "string"
        }
      ],
      "name": "NewCoffee",
      "type": "event"
    },
    {
      "inputs": [
        {
          "internalType": "string",
          "name": "_message",
          "type": "string"
        },
        {
          "internalType": "string",
          "name": "_name",
          "type": "string"
        },
        {
          "internalType": "uint256",
          "name": "_payAmount",
          "type": "uint256"
        }
      ],
      "name": "buyCoffee",
      "outputs": [],
      "stateMutability": "payable",
      "type": "function"
    },
    {
      "inputs": [],
      "name": "getTotalCoffee",
      "outputs": [
        {
          "internalType": "uint256",
          "name": "",
          "type": "uint256"
        }
      ],
      "stateMutability": "view",
      "type": "function"
    },
    {
      "inputs": [],
      "name": "owner",
      "outputs": [
        {
          "internalType": "address payable",
          "name": "",
          "type": "address"
        }
      ],
      "stateMutability": "view",
      "type": "function"
    },
    {
      "inputs": [],
      "name": "test",
      "outputs": [],
      "stateMutability": "view",
      "type": "function"
    }
  ],
  "bytecode": "0x60806040526200004f6040518060400160405280601881526020017f436f66666565506f7274616c20636f6e7374727563746f7200000000000000008152506200009660201b6200041a1760201c565b33600160006101000a81548173ffffffffffffffffffffffffffffffffffffffff021916908373ffffffffffffffffffffffffffffffffffffffff1602179055506200022a565b6200013681604051602401620000ad9190620001a3565b6040516020818303038152906040527f41304fac000000000000000000000000000000000000000000000000000000007bffffffffffffffffffffffffffffffffffffffffffffffffffffffff19166020820180517bffffffffffffffffffffffffffffffffffffffffffffffffffffffff83818316178352505050506200013960201b60201c565b50565b60008151905060006a636f6e736f6c652e6c6f679050602083016000808483855afa5050505050565b60006200016f82620001c7565b6200017b8185620001d2565b93506200018d818560208601620001e3565b620001988162000219565b840191505092915050565b60006020820190508181036000830152620001bf818462000162565b905092915050565b600081519050919050565b600082825260208201905092915050565b60005b8381101562000203578082015181840152602081019050620001e6565b8381111562000213576000848401525b50505050565b6000601f19601f8301169050919050565b610cfb806200023a6000396000f3fe60806040526004361061003f5760003560e01c8063441315c5146100445780634839ee3f146100605780638da5cb5b1461008b578063f8a8fd6d146100b6575b600080fd5b61005e60048036038101906100599190610734565b6100cd565b005b34801561006c57600080fd5b50610075610386565b6040516100829190610974565b60405180910390f35b34801561009757600080fd5b506100a06103b4565b6040516100ad9190610897565b60405180910390f35b3480156100c257600080fd5b506100cb6103da565b005b6000662386f26fc1000090508082101561011c576040517f08c379a000000000000000000000000000000000000000000000000000000000815260040161011390610934565b60405180910390fd5b600160005461012b9190610a51565b6000819055506101706040518060400160405280601a81526020017f257320686173206a7573742073656e74206120636f6666656521000000000000815250336104b3565b600260405180608001604052803373ffffffffffffffffffffffffffffffffffffffff16815260200186815260200185815260200142815250908060018154018082558091505060019003906000526020600020906004020160009091909190915060008201518160000160006101000a81548173ffffffffffffffffffffffffffffffffffffffff021916908373ffffffffffffffffffffffffffffffffffffffff1602179055506020820151816001019080519060200190610235929190610614565b506040820151816002019080519060200190610252929190610614565b506060820151816003015550506000600160009054906101000a900473ffffffffffffffffffffffffffffffffffffffff1673ffffffffffffffffffffffffffffffffffffffff16836040516102a790610882565b60006040518083038185875af1925050503d80600081146102e4576040519150601f19603f3d011682016040523d82523d6000602084013e6102e9565b606091505b505090508061032d576040517f08c379a000000000000000000000000000000000000000000000000000000000815260040161032490610954565b60405180910390fd5b3373ffffffffffffffffffffffffffffffffffffffff167f5d202edb9ac9aca913189e3c829f7fdbba23859e91379c70ecf7874fe39632a74287876040516103779392919061098f565b60405180910390a25050505050565b60006103ac604051806060016040528060218152602001610ca56021913960005461054f565b600054905090565b600160009054906101000a900473ffffffffffffffffffffffffffffffffffffffff1681565b6104186040518060400160405280601181526020017f436f66666565506f7274616c207465737400000000000000000000000000000081525061041a565b565b6104b08160405160240161042e91906108b2565b6040516020818303038152906040527f41304fac000000000000000000000000000000000000000000000000000000007bffffffffffffffffffffffffffffffffffffffffffffffffffffffff19166020820180517bffffffffffffffffffffffffffffffffffffffffffffffffffffffff83818316178352505050506105eb565b50565b61054b82826040516024016104c99291906108d4565b6040516020818303038152906040527f319af333000000000000000000000000000000000000000000000000000000007bffffffffffffffffffffffffffffffffffffffffffffffffffffffff19166020820180517bffffffffffffffffffffffffffffffffffffffffffffffffffffffff83818316178352505050506105eb565b5050565b6105e78282604051602401610565929190610904565b6040516020818303038152906040527f9710a9d0000000000000000000000000000000000000000000000000000000007bffffffffffffffffffffffffffffffffffffffffffffffffffffffff19166020820180517bffffffffffffffffffffffffffffffffffffffffffffffffffffffff83818316178352505050506105eb565b5050565b60008151905060006a636f6e736f6c652e6c6f679050602083016000808483855afa5050505050565b82805461062090610b37565b90600052602060002090601f0160209004810192826106425760008555610689565b82601f1061065b57805160ff1916838001178555610689565b82800160010185558215610689579182015b8281111561068857825182559160200191906001019061066d565b5b509050610696919061069a565b5090565b5b808211156106b357600081600090555060010161069b565b5090565b60006106ca6106c5846109f9565b6109d4565b9050828152602081018484840111156106e257600080fd5b6106ed848285610af5565b509392505050565b600082601f83011261070657600080fd5b81356107168482602086016106b7565b91505092915050565b60008135905061072e81610c8d565b92915050565b60008060006060848603121561074957600080fd5b600084013567ffffffffffffffff81111561076357600080fd5b61076f868287016106f5565b935050602084013567ffffffffffffffff81111561078c57600080fd5b610798868287016106f5565b92505060406107a98682870161071f565b9150509250925092565b6107bc81610ab9565b82525050565b6107cb81610aa7565b82525050565b60006107dc82610a2a565b6107e68185610a40565b93506107f6818560208601610b04565b6107ff81610c27565b840191505092915050565b6000610817601083610a40565b915061082282610c38565b602082019050919050565b600061083a601483610a40565b915061084582610c61565b602082019050919050565b600061085d600083610a35565b915061086882610c8a565b600082019050919050565b61087c81610aeb565b82525050565b600061088d82610850565b9150819050919050565b60006020820190506108ac60008301846107b3565b92915050565b600060208201905081810360008301526108cc81846107d1565b905092915050565b600060408201905081810360008301526108ee81856107d1565b90506108fd60208301846107c2565b9392505050565b6000604082019050818103600083015261091e81856107d1565b905061092d6020830184610873565b9392505050565b6000602082019050818103600083015261094d8161080a565b9050919050565b6000602082019050818103600083015261096d8161082d565b9050919050565b60006020820190506109896000830184610873565b92915050565b60006060820190506109a46000830186610873565b81810360208301526109b681856107d1565b905081810360408301526109ca81846107d1565b9050949350505050565b60006109de6109ef565b90506109ea8282610b69565b919050565b6000604051905090565b600067ffffffffffffffff821115610a1457610a13610bf8565b5b610a1d82610c27565b9050602081019050919050565b600081519050919050565b600081905092915050565b600082825260208201905092915050565b6000610a5c82610aeb565b9150610a6783610aeb565b9250827fffffffffffffffffffffffffffffffffffffffffffffffffffffffffffffffff03821115610a9c57610a9b610b9a565b5b828201905092915050565b6000610ab282610acb565b9050919050565b6000610ac482610acb565b9050919050565b600073ffffffffffffffffffffffffffffffffffffffff82169050919050565b6000819050919050565b82818337600083830152505050565b60005b83811015610b22578082015181840152602081019050610b07565b83811115610b31576000848401525b50505050565b60006002820490506001821680610b4f57607f821691505b60208210811415610b6357610b62610bc9565b5b50919050565b610b7282610c27565b810181811067ffffffffffffffff82111715610b9157610b90610bf8565b5b80604052505050565b7f4e487b7100000000000000000000000000000000000000000000000000000000600052601160045260246000fd5b7f4e487b7100000000000000000000000000000000000000000000000000000000600052602260045260246000fd5b7f4e487b7100000000000000000000000000000000000000000000000000000000600052604160045260246000fd5b6000601f19601f8301169050919050565b7f4e6f7420656e6f75676820657468657200000000000000000000000000000000600082015250565b7f4661696c656420746f2073656e64206574686572000000000000000000000000600082015250565b50565b610c9681610aeb565b8114610ca157600080fd5b5056fe5765206861766520256420746f74616c20636f6666656520726563696576656420a264697066735822122048ee65f01ea33bcdbfa38ae7afdba518fc048a14b0da8c8349f2aa2f64f7e32e64736f6c63430008040033",
  "linkReferences": {},
  "deployedLinkReferences": {}
}